:1000000088C00000A7C00000A5C00000A3C0000079
:10001000A1C000009FC000009DC000009BC0000068
:1000200099C0000097C0000095C0000093C0000078
:1000300091C000008FC000008DC000008BC0000088
:1000400089C000000C94D70885C0000083C0000060
:1000500081C000007FC000007DC000000C946608D5
:1000600079C000000C944A0B75C0000073C00000FA
:1000700071C000006FC000006DC000006BC00000C8
:1000800069C0000067C0000065C0000063C00000D8
:1000900061C000005FC000005DC000005BC00000E8
:1000A00059C0000057C0000055C0000053C00000F8
:1000B00051C000004FC000004DC000000C94B008BB
:1000C00049C0000047C0000045C0000043C0000018
:1000D00041C000003FC000003DC000003BC0000028
:1000E00039C00000084AD73B3BCE016E84BCBFFD3F
:1000F000C12F3D6C74319ABD56833DDA3D00C77FF8
:1001000011BED9E4BB4C3E916BAAAABE0000008090
:100110003F0011241FBECFEFD1E2DEBFCDBF00E014
:100120000CBF13E0A0E0B2E0ECE6F6E200E00BBFAB
:1001300002C007900D92A23AB107D9F724E0A2EAD3
:10014000B3E001C01D92AC35B207E1F70E94A209ED
:100150000C94341355CF9093C5008093C40088E964
:100160008093C1008EE08093C2000895CF93C82F82
:100170008A3011F48DE0FADF8091C00085FFFCCF5A
:10018000C093C60080E090E0CF9108950F931F9335
:10019000CF93DF93CDB7DEB764970FB6F894DEBF89
:1001A0000FBECDBFFC018E010F5F1F4F84E1D80150
:1001B0001D928A95E9F783818F9382818F93818144
:1001C0008F9380818F9384E893E09F938F931F9305
:1001D0000F930E941D0F1F930F930E94050F0FB6E0
:1001E000F894DEBF0FBECDBF64960FB6F894DEBFA5
:1001F0000FBECDBFDF91CF911F910F910895CF9387
:10020000DF9300D01F92CDB7DEB749835A836B834B
:100210007C839F938F930E94050FCE010196B6DFDA
:1002200081E893E09F938F930E94050F0F900F90AA
:100230000F900F900F900F900F900F90DF91CF9134
:1002400008952F923F924F925F926F927F928F927A
:100250009F92AF92BF92CF92DF92EF92FF920F9355
:100260001F93CF93DF9300D01F92CDB7DEB7170156
:100270000E94B80B69837A838B839C839B01AC01BA
:100280006A8D7B8D8C8D9D8D0E94FE0D2B013C0116
:1002900069817A818B819C810E94EB0C9B0177FFA5
:1002A00004C022273327261B370BB901330F880BD5
:1002B000990B0E941E0D2DEC3CEC4CEC5DE30E9472
:1002C000F30D1816C4F429813A814B815C816E8D3F
:1002D0007F8D88A199A10E94FE0D9B01AC01D801E0
:1002E0006D917D918D919C910E94B90BF801608375
:1002F000718382839383D1012D913D914D915C91C6
:1003000069817A818B819C810E94B80BA60195013D
:100310000E94830C9B01AC016AA17BA18CA19DA1D1
:100320000E94FE0D4B015C0189819A81AB81BC81E9
:10033000F10180839183A283B383D8012D913D91F4
:100340004D915C91C301B2010E94B90BA5019401CA
:100350000E94B90B0F900F900F900F90DF91CF91EB
:100360001F910F91FF90EF90DF90CF90BF90AF90D3
:100370009F908F907F906F905F904F903F902F90C5
:1003800008951F93CF93DF931F92CDB7DEB7182F39
:1003900080ED698339D7812F83D76981862F80D7F4
:1003A0000F90DF91CF911F916CC7AF92BF92CF9208
:1003B000DF92EF92FF920F931F93CF93662341F149
:1003C0007A01C62F182F80ED1FD7812F69D785E3BB
:1003D0008A95F1F7000081ED17D78701CC2ED12C3B
:1003E000E12CF12C5601E1E0AE1AB108EA14FB044D
:1003F00011F48FD701C074D7F8018083FFEFEF1A93
:10040000FF0A0F5F1F4FEC14FD0481F73AD701C0BC
:10041000C0E08C2FCF911F910F91FF90EF90DF9054
:10042000CF90BF90AF9008956F927F928F929F92DE
:10043000AF92BF92CF92DF92EF92FF920F931F93F2
:10044000CF93DF93CDB7DEB72E970FB6F894DEBF0C
:100450000FBECDBF4C015B016A013901AE014F5F98
:100460005F4F6EE08BE3A1DF898190E0982F8827B2
:100470002A81822BF401918380838B8190E0982FD5
:1004800088272C81822BF501918380838D8190E0D8
:10049000982F88272E81822BF6019183808389856E
:1004A00090E0982F88272A85822BF30191838083FF
:1004B0008B8590E0982F88272C85822BF8019183DB
:1004C00080838D8590E0982F88272E85822BF701D9
:1004D000918380832E960FB6F894DEBF0FBECDBFFA
:1004E000DF91CF911F910F91FF90EF90DF90CF9010
:1004F000BF90AF909F908F907F906F9008950895D8
:100500008F929F92AF92BF92CF92DF92EF92FF9223
:100510000F931F93A090D103B090D203C090D30348
:10052000D090D4036091D5037091D6038091D70306
:100530009091D803209109022F93209108022F93C4
:10054000209107022F93209106022F932091A5035B
:100550002F932091A4032F932091A3032F932091F5
:10056000A2032F9320910D022F9320910C022F9321
:1005700020910B022F9320910A022F932AEAE22E58
:1005800023E0F22E06EA13E020E030E0A90159DE74
:100590006B017C016093AE037093AF038093B00353
:1005A0009093B1038090D5039090D603A090D70389
:1005B000B090D803C501B4010E94EB0C9B0177FFFA
:1005C00004C022273327261B370BB901330F880BB2
:1005D000990B0E941E0D2DB73EB7245F3F4F0FB6FB
:1005E000F8943EBF0FBE2DBF2AE037ED43E25DE336
:1005F0000E947F0C87FD0AC020E030E044E352E413
:10060000C501B4010E94F30D18166CF41092DE03BC
:100610001092DD031092A6031092A7031092A80374
:100620001092A9032CC02AE037ED43E25DE3C50137
:10063000B4010E94F30D181674F4C701B6010E94AC
:10064000EB0C9B0177FF04C022273327261B370BB7
:10065000C901992710C0C701B6010E94EB0C9B018C
:1006600077FF04C022273327261B370BC9019927A0
:100670009195819591099093DE038093DD03E0913C
:10068000B403F091B503E25FFD4F808190E0909359
:10069000A9008093A800E0917D03F0917E03E25FC2
:1006A000FD4F808190E09093AB008093AA00E09191
:1006B0007B03F0917C03E25FFD4F808190E090939B
:1006C000AD008093AC006091DD037091DE0340913A
:1006D000B4035091B503460F571F5093B503409391
:1006E000B40320917D0330917E03260F371F309392
:1006F0007E0320937D0380917B0390917C03860F82
:10070000971F90937C0380937B034936514024F0DC
:100710001092B5031092B4034091B4035091B50305
:1007200057FF06C048E651E05093B5034093B40329
:100730002936314024F010927E0310927D032091DF
:100740007D0330917E0337FF06C028E631E0309309
:100750007E0320937D038936914024F010927C0320
:1007600010927B0380917B0390917C0397FF06C0DE
:1007700088E691E090937C0380937B038091C30390
:100780009091C40390932901809328011F910F91A8
:10079000FF90EF90DF90CF90BF90AF909F908F90A1
:1007A0000895E091B203F091B303E25FFD4F8081C1
:1007B00090E09093990080939800E0917903F091F4
:1007C0007A03E25FFD4F808190E090939B008093DD
:1007D0009A00E0917703F0917803E25FFD4F80810A
:1007E00090E090939D0080939C006091DB0370915A
:1007F000DC034091B2035091B303460F571F50934F
:10080000B3034093B2032091790330917A03260F0A
:10081000371F30937A032093790380917703909167
:100820007803860F971F9093780380937703493658
:10083000514024F01092B3031092B2034091B203DE
:100840005091B30357FF06C048E651E05093B303FD
:100850004093B2032936314024F010927A0310926B
:1008600079032091790330917A0337FF06C028E697
:1008700031E030937E0320937D038936914024F04C
:100880001092780310927703809177039091780308
:1008900097FF06C088E691E09093780380937703F2
:1008A0008091BF039091C00390938900809388004A
:1008B0000895E1E0F1E0808188608083808180613B
:1008C0008083808180628083089A0A9A0C9A0E9AAB
:1008D0003F9A109A129A149A169A479A6C9A6D9A9D
:1008E0006B9A3D9A3B9A399A579A999A459A439AA4
:1008F000419A5F9AA19A08954F925F926F927F9268
:100900008F929F92AF92BF92CF92DF92EF92FF921F
:100910000F931F93CF93DF93CDB7DEB76C970FB6CE
:10092000F894DEBF0FBECDBF6D8B7E8B8F8B988F03
:10093000CA01B901670178012091EB033091EC0302
:100940004091ED035091EE03298B3A8B4B8B5C8BDE
:100950000FD79B01AC016093E3037093E403809392
:10096000E5039093E603C701B6010E94FE0D2091B6
:100970000F04309110044091110450911204F9D6E3
:100980006D877E878F87988B0BE114E0D8011C96CA
:100990008D919D910D90BC91A02D8D839E83AF83F1
:1009A000B8879C01AD01C701B6010E94FE0D4B0145
:1009B0005C01F80144805580668077802085318510
:1009C0004285538529873A874B875C87A30192012B
:1009D000CFD629853A854B855C85CAD62091E70319
:1009E0003091E8034091E9035091EA03C2D69B019C
:1009F000AC01C701B6010E94FE0DF80120813181D2
:100A000042815381B6D669837A838B839C83A50107
:100A10009401C301B201ACD62B013C01A5019401A4
:100A200069857A858B859C85A3D669877A878B872C
:100A30009C872091DF033091E0034091E1035091C6
:100A4000E203C701B6010E94FE0D9B01AC016D815E
:100A50007E818F8198858DD6698F7A8F8B8F9C8FC1
:100A600020910704309108044091090450910A0430
:100A700069817A818B819C817CD66B017C019B0191
:100A8000AC0169817A818B819C813DD74B015C01EE
:100A9000A701960169857A858B859C8534D76B0182
:100AA0007C012D853E854F8558896D897E898F898A
:100AB000988D5ED66D837E838F8398879B01AC0172
:100AC000C501B4010E94FE0D9B01AC016D857E85C0
:100AD0008F8598894ED66D877E878F87988B609398
:100AE0000F047093100480931104909312042D81CD
:100AF0003E814F815885C701B6010E94FE0D9B01C2
:100B0000AC0169897A898B899C8933D66093EB0320
:100B10007093EC038093ED039093EE0329813A8167
:100B20004B815C81C501B4010E94FE0D9B01AC01AB
:100B300069817A818B819C811BD6D8016D937D93CD
:100B40008D939C931397A3019201C501B4010E9458
:100B5000FE0D9B01AC01C301B2010AD6F80164830A
:100B600075838683978329813A814B815C81C70194
:100B7000B6010E94FE0D9B01AC0169857A858B85CB
:100B80009C85F6D5D80118966D937D938D939C9393
:100B90001B97A3019201C701B6010E94FE0D9B01A4
:100BA000AC01698D7A8D8B8D9C8DE2D5F8016487BF
:100BB0007587868797876D857E858F8598896C96E2
:100BC0000FB6F894DEBF0FBECDBFDF91CF911F915E
:100BD0000F91FF90EF90DF90CF90BF90AF909F90DC
:100BE0008F907F906F905F904F9008958FE692E185
:100BF000A3E8BAE38093E7039093E803A093E903A3
:100C0000B093EA0386EA9BE9A4E4BBE38093DF03A5
:100C10009093E003A093E103B093E2038FE892EC9A
:100C2000A5EFBCE38093070490930804A093090404
:100C3000B0930A0410920F04109210041092110441
:100C4000109212041092EB031092EC031092ED0339
:100C50001092EE03EBE1F4E0108211821282138213
:100C600014821582168217821086118612861386C8
:100C7000148615861686178608954F925F926F9296
:100C80007F928F929F92AF92BF92CF92DF92EF921C
:100C9000FF920F931F93CF93DF93CDB7DEB76C977F
:100CA0000FB6F894DEBF0FBECDBF6D8B7E8B8F8BE2
:100CB000988FCA01B9016701780120910B04309126
:100CC0000C0440910D0450910E04298B3A8B4B8BF0
:100CD0005C8B4ED59B01AC016093030470930404BC
:100CE0008093050490930604C701B60187D720912D
:100CF000EF033091F0034091F1035091F20339D5A5
:100D00006D877E878F87988B03EF13E0D8011C9641
:100D10008D919D910D90BC91A02D8D839E83AF836D
:100D2000B8879C01AD01C701B60168D74B015C01D2
:100D3000F801448055806680778020853185428522
:100D4000538529873A874B875C87A301920110D589
:100D500029853A854B855C850BD520912B043091F4
:100D60002C0440912D0450912E0403D59B01AC011D
:100D7000C701B60143D7F8012081318142815381F7
:100D8000F8D469837A838B839C83A5019401C30182
:100D9000B201EED42B013C01A501940169857A854D
:100DA0008B859C85E5D469877A878B879C87209182
:100DB0001704309118044091190450911A04C70186
:100DC000B6011CD79B01AC016D817E818F81988516
:100DD000D0D4698F7A8F8B8F9C8F209113043091A0
:100DE0001404409115045091160469817A818B8115
:100DF0009C81BFD46B017C019B01AC0169817A812C
:100E00008B819C8180D54B015C01A701960169858E
:100E10007A858B859C8577D56B017C012D853E85F8
:100E20004F8558896D897E898F89988DA1D46D836E
:100E30007E838F8398879B01AC01C501B401DED608
:100E40009B01AC016D857E858F85988992D46D87D5
:100E50007E878F87988B6093EF037093F003809366
:100E6000F1039093F2032D813E814F815885C70194
:100E7000B601C4D69B01AC0169897A898B899C89AA
:100E800078D460930B0470930C0480930D049093BA
:100E90000E0429813A814B815C81C501B401AED633
:100EA0009B01AC0169817A818B819C8161D4D801DD
:100EB0006D937D938D939C931397A3019201C5012C
:100EC000B4019CD69B01AC01C301B20151D4F8011D
:100ED000648375838683978329813A814B815C8102
:100EE000C701B6018BD69B01AC0169857A858B85DC
:100EF0009C853ED4D80118966D937D938D939C93D9
:100F00001B97A3019201C701B60178D69B01AC01E2
:100F1000698D7A8D8B8D9C8D2BD4F80164877587B4
:100F2000868797876D857E858F8598896C960FB6A5
:100F3000F894DEBF0FBECDBFDF91CF911F910F910F
:100F4000FF90EF90DF90CF90BF90AF909F908F90E9
:100F50007F906F905F904F9008958AE097EDA3E2A5
:100F6000BCE380932B0490932C04A0932D04B093A6
:100F70002E0486EA9BE9A4E4BBE3809317049093D4
:100F80001804A0931904B0931A048FE892ECA5EF0B
:100F9000BCE38093130490931404A0931504B093BE
:100FA00016041092EF031092F0031092F1031092C6
:100FB000F20310920B0410920C0410920D04109284
:100FC0000E04E3EFF3E01082118212821382148286
:100FD0001582168217821086118612861386148651
:100FE0001586168617860895E1EAF0E08081816013
:100FF0008083E0EAF0E08081816080838081806886
:10100000808380818062808380818860808308956E
:10101000E1E9F0E0808181608083E0E9F0E08081B7
:10102000816080838081806880838081806280830A
:101030008081886080830895E1E2F1E080818160B1
:1010400080838081886080830895E3E7F0E0808179
:10105000826080830895E1E8F0E080818160808390
:10106000808188608083089585B5816085BD85B560
:10107000826085BD0895EEE6F0E080818160808326
:1010800008953FB7F8948091BB039091BC03A09161
:10109000BD03B091BE0326B5A89B05C02F3F19F034
:1010A0000196A11DB11D3FBFBA2FA92F982F8827E8
:1010B000820F911DA11DB11DBC01CD0142E0660F43
:1010C000771F881F991F4A95D1F708951F920F9295
:1010D0000FB60F9211242F933F938F939F93AF934B
:1010E000BF938091B7039091B803A091B903B091D9
:1010F000BA033091B60323E0230F2D3720F4019675
:10110000A11DB11D05C026E8230F0296A11DB11D2A
:101110002093B6038093B7039093B803A093B903C9
:10112000B093BA038091BB039091BC03A091BD031F
:10113000B091BE030196A11DB11D8093BB03909396
:10114000BC03A093BD03B093BE03BF91AF919F9129
:101150008F913F912F910F900FBE0F901F90189578
:101160001F920F920FB60F9211240BB60F922F936E
:101170003F934F935F936F937F938F939F93AF931F
:10118000BF93EF93FF93BCD9FF91EF91BF91AF91C4
:101190009F918F917F916F915F914F913F912F918F
:1011A0000F900BBE0F900FBE0F901F9018951F92BF
:1011B0000F920FB60F9211240BB60F922F933F93FD
:1011C0004F935F936F937F938F939F93AF93BF934F
:1011D000EF93FF93E6DAFF91EF91BF91AF919F916B
:1011E0008F917F916F915F914F913F912F910F90D0
:1011F0000BBE0F900FBE0F901F9018951092B90064
:101200008CE08093B800089594EA9093BC004FEF6F
:1012100050E060E070E09091BC0097FD06C0415046
:10122000510961097109B8F706C0452B462B472BB8
:1012300011F481E008959091B900987F983011F0F1
:101240009031B9F78093BB0084E88093BC008FEFA6
:1012500090E0A0E0B0E02091BC0027FD05C0019720
:10126000A109B109C0F704C0892B8A2B8B2B09F384
:101270008091B900887F883111F08034D1F680E008
:10128000089584E98093BC0080E090E02091BC0048
:1012900024FF05C00196811521E09207B9F7089552
:1012A0008093BB0084E88093BC008FEF90E0A0E0C7
:1012B000B0E02091BC0027FD05C00197A109B1094C
:1012C000C0F704C0892B8A2B8B2B41F09091B90079
:1012D000987F81E0983219F480E0089581E00895C4
:1012E00084EC8093BC008FEF90E0A0E0B0E0209110
:1012F000BC0027FD05C00197A109B109C0F704C0D2
:10130000892B8A2B8B2B19F08091BB00089580E0EC
:10131000089584E88093BC008FEF90E0A0E0B0E0F7
:101320002091BC0027FD05C00197A109B109C0F7B4
:1013300004C0892B8A2B8B2B19F08091BB00089558
:1013400080E00895CF93DF93CDB7DEB76C970FB6EB
:10135000F894DEBF0FBECDBF1092B5031092B40358
:1013600028E730E030937E0320937D0380EF90E008
:1013700090937C0380937B031092B3031092B2038B
:1013800030937A03209379039093780380937703C3
:101390008FEF9FEF9093DE038093DD039093DC0348
:1013A0008093DB0388EA91E69093C4038093C303A0
:1013B00080E09DE79093C0038093BF03F8949FD88B
:1013C00078DA1CDF83E090E00E94AB0060E070E020
:1013D00086EB90E0D0D49093C2038093C10344DEA7
:1013E0004ADE02DE15DE28DE30DE35DE8091C30304
:1013F0009091C40390932901809328018091BF03A9
:101400009091C00390938900809388003ADE2B016D
:101410003C0167E089E10E94C10160E08AE10E942D
:10142000C10168E08BE10E94C10160E18CE10E9492
:10143000C10161E08BE60E94C101D8DB8EDD2FEF98
:1014400081EE94E0215080409040E1F700C0000020
:1014500010920F04109210041092110410921204B2
:101460001092EF031092F0031092F1031092F20326
:10147000789484E6282E312CCE0107967C018E01CB
:10148000075F1F4F9E01255F3F4FAE014F5F5F4FCC
:10149000BE016D5F7F4F02970E9414028B859C8571
:1014A00084599F4F9C878B8789859A8580529F4F4F
:1014B0009A8789878F8198858F589D4F98878F83CA
:1014C000E0DD6419750986099709B6D220E034E297
:1014D00044E759E418D26093D1037093D203809308
:1014E000D3039093D403CDDD2B013C016B857C8528
:1014F000072E000C880B990BA1D220E030E043E8C6
:1015000052E401D26D877E878F87988B69857A85B3
:10151000072E000C880B990B91D220E030E043E8B5
:1015200052E4F1D1698B7A8B8B8B9C8B80917F03FA
:1015300090918003892B21F01092800310927F03F9
:10154000C980DA80EB80FC80B6010D2C000C880B82
:10155000990B74D29B01AC01B7010F2C000C880BC6
:10156000990B298F3A8F4B8F5C8F68D2298D3A8DDA
:101570004B8D5C8D71D16D8B7E8B8F8B988FC7015E
:10158000B101CFD0072E000C880B990B57D24B011D
:101590005C01C601B101C5D0072E000C880B990B68
:1015A0004DD26B017C01A5019401C501B40126D384
:1015B0004B015C01A7019601C701B6011FD39B0136
:1015C000AC01C501B401D5D080D320E030E048ECB7
:1015D00052E414D39B01AC016D817E81072E000C77
:1015E000880B990B298F3A8F4B8F5C8F27D2298DCF
:1015F0003A8D4B8D5C8D30D121EE3EE245E652E4D2
:10160000FDD24B015C01C090D103D090D203E09099
:10161000D303F090D40321EE3EE245E652E46D8917
:101620007E898F89988DEAD2870176012D853E8546
:101630004F85588961D96093D5037093D603809301
:10164000D7039093D803E090D103F090D203009198
:10165000D3031091D40329893A894B895C89C50148
:10166000B4010BDBAB01BC014093C9035093CA0327
:101670006093CB037093CC0387E893E00E94FF0054
:10168000B501A40183E993E00E94FF008AE090E0A5
:10169000CFD3F2CE1F920F920FB60F9211240BB63A
:1016A0000F922F933F934F935F936F937F938F93FB
:1016B0009F93AF93BF93EF93FF938CE993E09F9336
:1016C0008F93A3D38091C60080932F048FE294E080
:1016D0009F938F938FE993E09F938F9396D32FEFF0
:1016E00083E294EF215080409040E1F700C0000079
:1016F0000F900F900F900F900F900F90FF91EF9120
:10170000BF91AF919F918F917F916F915F914F9119
:101710003F912F910F900BBE0F900FBE0F901F9017
:10172000189597FB072E16F4009406D077FD08D085
:101730000BD007FC05D03EF4909581959F4F0895FE
:10174000709561957F4F0895AA1BBB1B51E107C09F
:10175000AA1FBB1FA617B70710F0A61BB70B881F41
:10176000991F5A95A9F780959095BC01CD010895D0
:101770005058BB27AA270ED0FCC1EDD130F0F2D1D2
:1017800020F031F49F3F11F41EF4BDC10EF4E0953A
:10179000E7FBB3C1E92FFED180F3BA1762077307E5
:1017A0008407950718F071F49EF516C20EF4E095C3
:1017B0000B2EBA2FA02D0B01B90190010C01CA010B
:1017C000A0011124FF27591B99F0593F50F4503EB6
:1017D00068F11A16F040A22F232F342F4427585FA8
:1017E000F3CF469537952795A795F0405395C9F7C0
:1017F0007EF41F16BA0B620B730B840BBAF0915078
:10180000A1F0FF0FBB1F661F771F881FC2F70EC016
:10181000BA0F621F731F841F48F4879577956795E9
:10182000B795F7959E3F08F0B3CF9395880F08F0D2
:101830009927EE0F9795879508958DD158F080E8F8
:1018400091E009F49EEF8ED128F040E851E059F480
:101850005EEF09C058C1C0C1E92FE0789BD168F3A1
:10186000092E052AC1F3261737074807590738F00C
:101870000E2E07F8E02569F0E025E0640AC0EF636A
:1018800007F8009407FADB01B9019D01DC01CA01E8
:10189000AD01EF9347D06DD10AD05F91552331F060
:1018A0002BED3FE049E450FD49EC63CF0895DF9311
:1018B000DD27B92FBF7740E85FE316161706480704
:1018C0005B0710F4D92F93D19F938F937F936F93DE
:1018D0003AD2E4EEF0E01AD14CD12F913F914F91E2
:1018E0005F9198D1DD2349F09058A2EA2AED3FE0BC
:1018F00049EC5FE3D0785D274DDFDF913AC1D9D065
:1019000008F481E008950CD034C12CD140F023D1EB
:1019100030F021F45F3F19F0F0C051115EC1F3C007
:1019200039D198F39923C9F35523B1F3951B550B7E
:10193000BB27AA2762177307840738F09F5F5F4FA2
:10194000220F331F441FAA1FA9F333D00E2E3AF0E3
:10195000E0E830D091505040E695001CCAF729D0FD
:10196000FE2F27D0660F771F881FBB1F261737074C
:101970004807AB07B0E809F0BB0B802DBF01FF277C
:1019800093585F4F2AF09E3F510568F0B6C025C1BD
:101990005F3FECF3983EDCF3869577956795B795B6
:1019A000F7959F5FC9F7880F911D9695879597F9D1
:1019B0000895E1E0660F771F881FBB1F621773074A
:1019C0008407BA0720F0621B730B840BBA0BEE1F5F
:1019D00088F7E095089504D06894B111FEC0089589
:1019E000E1D088F09F5790F0B92F9927B751A0F018
:1019F000D1F0660F771F881F991F1AF0BA95C9F7A3
:101A000012C0B13081F0E8D0B1E00895E5C0672F91
:101A1000782F8827B85F39F0B93FCCF38695779552
:101A20006795B395D9F73EF490958095709561953B
:101A30007F4F8F4F9F4F0895E89409C097FB3EF466
:101A400090958095709561957F4F8F4F9F4F99230B
:101A5000A9F0F92F96E9BB279395F6958795779589
:101A60006795B795F111F8CFFAF4BB0F11F460FF49
:101A70001BC06F5F7F4F8F4F9F4F16C0882311F0A1
:101A800096E911C0772321F09EE8872F762F05C0B5
:101A9000662371F096E8862F70E060E02AF09A9550
:101AA000660F771F881FDAF7880F9695879597F945
:101AB0000895990F0008550FAA0BE0E8FEEF1616DF
:101AC0001706E807F907C0F012161306E407F50732
:101AD00098F0621B730B840B950B39F40A2661F0A6
:101AE000232B242B252B21F408950A2609F4A14049
:101AF000A6958FEF811D811D089597F99F6780E856
:101B000070E060E008959FEF80EC0895DF93CF933D
:101B10001F930F93FF92EF92DF927B018C016894E9
:101B200005C0DA2EEF0176D0FE01E894A59125914B
:101B3000359145915591AEF3EF012CDEFE019701F1
:101B4000A801DA9479F7DF90EF90FF900F911F9141
:101B5000CF91DF91089500240A94161617061806EF
:101B60000906089500240A941216130614060506A1
:101B70000895092E0394000C11F4882352F0BB0F32
:101B800040F4BF2B11F460FF04C06F5F7F4F8F4F95
:101B90009F4F089557FD9058440F551F59F05F3FD0
:101BA00071F04795880F97FB991F61F09F3F79F07F
:101BB00087950895121613061406551FF2CF469501
:101BC000F1DF08C0161617061806991FF1CF869583
:101BD0007105610508940895E894BB276627772767
:101BE000CB0197F9089565DF08F48FEF08959B0105
:101BF000AC0160E070E080E89FE385CE0BD0B9CF08
:101C0000AADF28F0AFDF18F0952309F076CF7BCF5D
:101C10001124E3CFBFDFA0F3959FD1F3950F50E0E0
:101C2000551F629FF001729FBB27F00DB11D639F8E
:101C3000AA27F00DB11DAA1F649F6627B00DA11D34
:101C4000661F829F2227B00DA11D621F739FB00DDA
:101C5000A11D621F839FA00D611D221F749F33274A
:101C6000A00D611D231F849F600D211D822F762FE3
:101C70006A2F11249F5750408AF0E1F088234AF0E0
:101C8000EE0FFF1FBB1F661F771F881F915050402C
:101C9000A9F79E3F510570F030CF9FCF5F3FECF327
:101CA000983EDCF3869577956795B795F795E79518
:101CB0009F5FC1F7FE2B880F911D9695879597F929
:101CC000089511F40EF41FCF41C06CDFD0F39923B7
:101CD000D9F3CEF39F57550B87FF46D00024A0E6DB
:101CE00040EA900180585695979528F4805C660FDD
:101CF000771F881F20F026173707480730F4621B2C
:101D0000730B840B202931294A2BA695179407942D
:101D1000202531254A2758F7660F771F881F20F0A6
:101D200026173707480730F4620B730B840B200D1E
:101D3000311D411DA09581F7B901842F9158880F5D
:101D40009695879508959B01AC0158CF9F3F31F040
:101D5000915020F4879577956795B795880F911DD9
:101D60009695879597F9089591505040660F771F83
:101D7000881FD2F708950F931F93CF93DF93009797
:101D800031F46115710519F480E090E039C08B01E0
:101D9000EC016EE070E081E090E06CD2FC01892BF8
:101DA00099F380E883830115110571F01387028789
:101DB00081E883838091520490915304892B21F40C
:101DC000F0935304E09352042097C9F0D187C08761
:101DD0008381826083838091540490915504892B80
:101DE00071F4F0935504E09354048091560490915B
:101DF0005704892B21F4F0935704E0935604CF0144
:101E0000DF91CF911F910F910895CF93DF93CDB7BD
:101E1000DEB7AE014A5F5F4FFA0161917191AF0188
:101E2000809154049091550437D0DF91CF9108955B
:101E3000609154047091550481C30F931F93CF9305
:101E4000DF93CDB7DEB72E970FB6F894DEBF0FBE87
:101E5000CDBF0E891F8986E08C831A8309838FEF9B
:101E60009FE79E838D83AE01465E5F4F688D798DBF
:101E7000CE01019611D02F813885F801E20FF31FB2
:101E800010822E960FB6F894DEBF0FBECDBFDF9145
:101E9000CF911F910F9108952F923F924F925F9291
:101EA0006F927F928F929F92AF92BF92CF92DF926A
:101EB000EF92FF920F931F93CF93DF93CDB7DEB7CF
:101EC0002C970FB6F894DEBF0FBECDBF7C016B011F
:101ED0008A01FC0117821682838181FFB0C1CE0185
:101EE00001964C01F7019381F60193FD859193FFD3
:101EF00081916F01882309F49EC1853239F493FDE5
:101F0000859193FF81916F01853221F4B70190E0B3
:101F100015D3E8CF512C312C20E02032A0F48B32A5
:101F200069F030F4803259F0833269F420612CC0BA
:101F30008D3239F0803339F4216026C0226024606C
:101F400023C0286021C027FD27C030ED380F3A306C
:101F500078F426FF06C0FAE05F9E300D1124532E60
:101F600013C08AE0389E300D1124332E20620CC03D
:101F70008E3221F426FD5FC1206406C08C3611F438
:101F8000206802C0883641F4F60193FD859193FFE5
:101F900081916F018111C1CF982F9F7D955493300E
:101FA00028F40C5F1F4FFFE3F9830DC0833631F037
:101FB000833771F0833509F057C021C0F801808163
:101FC00089830E5F1F4F44244394512C540114C045
:101FD0003801F2E06F0E711CF801A080B18026FF7D
:101FE00003C0652D70E002C06FEF7FEFC5012C8745
:101FF0009AD22C0183012C852F77222E16C038010E
:10200000F2E06F0E711CF801A080B18026FF03C0C2
:10201000652D70E002C06FEF7FEFC5012C8771D294
:102020002C012C852068222E830123FC19C0832DCE
:1020300090E048165906A0F4B70180E290E07ED205
:102040003A94F5CFF50127FC859127FE81915F0138
:10205000B70190E073D231103A94F1E04F1A510871
:102060004114510479F7DEC0843611F0893631F518
:10207000F80127FF07C060817181828193810C5F25
:102080001F4F08C060817181072E000C880B990BCF
:102090000E5F1F4F2F76722E97FF09C09095809587
:1020A000709561957F4F8F4F9F4F2068722E2AE069
:1020B00030E0A4017BD2A82EA81843C0853729F4AC
:1020C0002F7EB22E2AE030E025C0F22FF97FBF2EFE
:1020D0008F36C1F018F4883579F0ADC0803719F02B
:1020E000883721F0A8C02F2F2061B22EB4FE0DC07A
:1020F0008B2D8460B82E09C024FF0AC09F2F9660E4
:10210000B92E06C028E030E005C020E130E002C072
:1021100020E132E0F801B7FE07C060817181828161
:1021200093810C5F1F4F06C06081718180E090E059
:102130000E5F1F4FA4013AD2A82EA818FB2DFF77DF
:102140007F2E76FE0BC0372D3E7FA51450F474FE13
:102150000AC072FC08C0372D3E7E05C0BA2C372D50
:1021600003C0BA2C01C0B52C34FF0DC0FE01EA0D2E
:10217000F11D8081803311F4397E09C032FF06C021
:10218000B394B39404C0832F867809F0B39433FDDD
:1021900012C030FF06C05A2CB31418F4530C5B184D
:1021A000B32CB31460F4B70180E290E03C87C6D151
:1021B000B3943C85F6CFB31410F43B1801C0312C16
:1021C00034FF11C0B70180E390E03C87B7D13C8574
:1021D00032FF16C031FD03C088E790E002C088E5F9
:1021E00090E0B7010CC0832F867851F031FF02C018
:1021F0008BE201C080E237FD8DE2B70190E09ED115
:10220000A51430F4B70180E390E098D15A94F8CF48
:10221000AA94F401EA0DF11D8081B70190E08ED1FE
:10222000A110F6CF332009F45DCEB70180E290E033
:1022300085D13A94F7CFF7018681978102C08FEF5D
:102240009FEF2C960FB6F894DEBF0FBECDBFDF9187
:10225000CF911F910F91FF90EF90DF90CF90BF90A3
:10226000AF909F908F907F906F905F904F903F9036
:102270002F9008950F931F93CF93DF93869F800134
:10228000879F100D969F100D1124C8010DD0EC01F1
:10229000009721F0A80160E070E03ED1CE01DF910F
:1022A000CF911F910F910895CF93DF9382309105C5
:1022B00010F482E090E0E0915A04F0915B0420E099
:1022C00030E0C0E0D0E0309711F1408151814817F3
:1022D0005907C0F04817590761F48281938120970C
:1022E00019F09B838A832BC090935B0480935A04DC
:1022F00026C02115310519F04217530718F49A0129
:10230000BE01DF01EF010280F381E02DDCCF21155A
:10231000310509F1281B390B2430310590F4129650
:102320008D919C9113976115710521F0FB019383A9
:10233000828304C090935B0480935A04FD0132961B
:1023400044C0FD01E20FF31F8193919322503109A4
:102350002D933C933AC02091580430915904232B7B
:1023600041F42091020230910302309359042093EA
:10237000580420910002309101022115310541F4E9
:102380002DB73EB74091040250910502241B350B36
:10239000E0915804F0915904E217F307A0F42E1BC2
:1023A0003F0B2817390778F0AC014E5F5F4F2417B9
:1023B000350748F04E0F5F1F50935904409358045F
:1023C0008193919302C0E0E0F0E0CF01DF91CF91E3
:1023D00008950F931F93CF93DF93009709F48CC058
:1023E000FC0132971382128200915A0410915B040F
:1023F0000115110581F420813181820F931F2091F5
:102400005804309159042817390779F5F093590485
:10241000E093580471C0D80140E050E0AE17BF0708
:1024200050F412962D913C911397AD012115310571
:1024300009F1D901F3CF9D01DA0133832283608151
:102440007181860F971F8217930769F4EC01288129
:102450003981260F371F2E5F3F4F318320838A81BA
:102460009B8193838283452B29F4F0935B04E09353
:102470005A0442C01396FC93EE931297ED014991D2
:1024800059919E01240F351FE217F30771F48081E3
:102490009181840F951F029611969C938E93828151
:1024A000938113969C938E931297E0E0F0E0D8010D
:1024B00012968D919C911397009719F0F8018C0159
:1024C000F6CF8D919C9198012E5F3F4F820F931F05
:1024D00020915804309159042817390769F430972E
:1024E00029F410925B0410925A0402C013821282E3
:1024F0001093590400935804DF91CF911F910F91CD
:102500000895FC010590615070400110D8F7809546
:1025100090958E0F9F1F0895DC0101C06D9341506F
:102520005040E0F70895FC016150704001900110A7
:10253000D8F7809590958E0F9F1F08950F931F9346
:10254000CF93DF93FB01238121FD03C08FEF9FEF2A
:1025500028C022FF16C04681578124813581421749
:10256000530744F4A081B1819D012F5F3F4F318318
:1025700020838C93268137812F5F3F4F37832683BB
:1025800010C0EB01092F182F0084F185E02D19955B
:10259000892BE1F68E819F8101969F838E83812F07
:1025A000902FDF91CF911F910F910895FA01AA27E3
:1025B000283051F1203181F1E8946F936E7F6E5F86
:1025C0007F4F8F4F9F4FAF4FB1E03ED0B4E03CD034
:1025D000670F781F891F9A1FA11D680F791F8A1F17
:1025E000911DA11D6A0F711D811D911DA11D20D07E
:1025F00009F468943F912AE0269F11243019305D38
:102600003193DEF6CF010895462F4770405D419328
:10261000B3E00FD0C9F7F6CF462F4F70405D4A3375
:1026200018F0495D31FD4052419302D0A9F7EACF3D
:10263000B4E0A6959795879577956795BA95C9F76C
:1026400000976105710508959B01AC010A2E06945F
:102650005795479537952795BA95C9F7620F731F18
:0C266000841F951FA01D0895F894FFCF63
:10266C0000005C0420004260E53B85EBD13E80839A
:10267C00878A8D9194979B9EA1A4A8ABAEB1B5B857
:10268C00BBBEC1C5C8CBCED1D4D7DADDE0E1E1E227
:10269C00E3E4E5E6E6E7E8E8E9EAEAEBEBECECECA8
:1026AC00EDEDEDEEEEEEEEEEEEEEEEEEEEEEEEEE41
:1026BC00EEEEEDEDEDECECECEBEBEAEAE9E8E8E75D
:1026CC00E6E6E5E4E3E2E1E1E0E1E1E2E3E4E5E6CC
:1026DC00E6E7E8E8E9EAEAEBEBECECECEDEDEDEE45
:1026EC00EEEEEEEEEEEEEEEEEEEEEEEEEEEEEDED00
:1026FC00EDECECECEBEBEAEAE9E8E8E7E6E6E5E43E
:10270C00E3E2E1E1E0DDDAD7D4D1CECBC8C5C1BE7E
:10271C00BBB8B5B1AEABA8A4A19E9B9794918D8A82
:10272C008783807D7976736F6C6965625F5C5855C1
:10273C00524F4B4845423F3B3835322F2C292623EC
:10274C00201F1F1E1D1C1B1A1A19181817161615D8
:10275C001514141413131312121212121212121241
:10276C001212121212121313131414141515161626
:10277C00171818191A1A1B1C1D1E1F1F201F1F1E8D
:10278C001D1C1B1A1A1918181716161515141414C3
:10279C00131313121212121212121212121212120A
:1027AC0012121313131414141515161617181819CE
:1027BC001A1A1B1C1D1E1F1F202326292C2F3235D5
:1027CC00383B3F4245484B4F5255585C5F626569F8
:1027DC006C6F7376797D80F0007800F000780001E2
:1027EC00002020002566006B616C506974636820C2
:1027FC003D20007069746368203D20002D3E00254B
:02280C00730057
:00000001FF
